{
  "_format": "hh-sol-artifact-1",
  "contractName": "ProvenanceRegistry",
  "sourceName": "contracts/ProvenanceRegistry.sol",
  "abi": [
    {
      "inputs": [
        {
          "internalType": "bytes32",
          "name": "hash",
          "type": "bytes32"
        },
        {
          "internalType": "address",
          "name": "originalSubmitter",
          "type": "address"
        }
      ],
      "name": "HashAlreadyRecorded",
      "type": "error"
    },
    {
      "inputs": [],
      "name": "InvalidHash",
      "type": "error"
    },
    {
      "anonymous": false,
      "inputs": [
        {
          "indexed": true,
          "internalType": "bytes32",
          "name": "hash",
          "type": "bytes32"
        },
        {
          "indexed": true,
          "internalType": "address",
          "name": "submitter",
          "type": "address"
        },
        {
          "indexed": false,
          "internalType": "uint256",
          "name": "timestamp",
          "type": "uint256"
        },
        {
          "indexed": false,
          "internalType": "string",
          "name": "label",
          "type": "string"
        }
      ],
      "name": "ContentNotarized",
      "type": "event"
    },
    {
      "inputs": [
        {
          "internalType": "bytes32",
          "name": "hash",
          "type": "bytes32"
        }
      ],
      "name": "isRecorded",
      "outputs": [
        {
          "internalType": "bool",
          "name": "",
          "type": "bool"
        }
      ],
      "stateMutability": "view",
      "type": "function"
    },
    {
      "inputs": [
        {
          "internalType": "bytes32",
          "name": "hash",
          "type": "bytes32"
        },
        {
          "internalType": "string",
          "name": "label",
          "type": "string"
        }
      ],
      "name": "notarize",
      "outputs": [],
      "stateMutability": "nonpayable",
      "type": "function"
    },
    {
      "inputs": [
        {
          "internalType": "bytes32",
          "name": "hash",
          "type": "bytes32"
        }
      ],
      "name": "verify",
      "outputs": [
        {
          "internalType": "address",
          "name": "submitter",
          "type": "address"
        },
        {
          "internalType": "uint256",
          "name": "timestamp",
          "type": "uint256"
        },
        {
          "internalType": "string",
          "name": "label",
          "type": "string"
        },
        {
          "internalType": "bool",
          "name": "exists",
          "type": "bool"
        }
      ],
      "stateMutability": "view",
      "type": "function"
    }
  ],
  "bytecode": "0x608060405234801561001057600080fd5b50610aba806100206000396000f3fe608060405234801561001057600080fd5b50600436106100415760003560e01c806312dcb7a01461004657806375e3661614610076578063d0077945146100a9575b600080fd5b610060600480360381019061005b9190610473565b6100c5565b60405161006d91906104bb565b60405180910390f35b610090600480360381019061008b9190610473565b6100f1565b6040516100a094939291906105c0565b60405180910390f35b6100c360048036038101906100be9190610671565b6101e9565b005b600080600083815260200190815260200160002060030160009054906101000a900460ff169050919050565b600080606060008060008087815260200190815260200160002090508060000160009054906101000a900473ffffffffffffffffffffffffffffffffffffffff168160010154826002018360030160009054906101000a900460ff1681805461015990610700565b80601f016020809104026020016040519081016040528092919081815260200182805461018590610700565b80156101d25780601f106101a7576101008083540402835291602001916101d2565b820191906000526020600020905b8154815290600101906020018083116101b557829003601f168201915b505050505091509450945094509450509193509193565b6000801b8303610225576040517f0af806e000000000000000000000000000000000000000000000000000000000815260040160405180910390fd5b60008084815260200190815260200160002060030160009054906101000a900460ff16156102c1578260008085815260200190815260200160002060000160009054906101000a900473ffffffffffffffffffffffffffffffffffffffff166040517f357637ae0000000000000000000000000000000000000000000000000000000081526004016102b8929190610740565b60405180910390fd5b60405180608001604052803373ffffffffffffffffffffffffffffffffffffffff16815260200142815260200183838080601f016020809104026020016040519081016040528093929190818152602001838380828437600081840152601f19601f8201169050808301925050505050505081526020016001151581525060008085815260200190815260200160002060008201518160000160006101000a81548173ffffffffffffffffffffffffffffffffffffffff021916908373ffffffffffffffffffffffffffffffffffffffff1602179055506020820151816001015560408201518160020190816103b79190610944565b5060608201518160030160006101000a81548160ff0219169083151502179055509050503373ffffffffffffffffffffffffffffffffffffffff16837f7623fde0e82f7a137bebd76f11ce2838f852e2d9abd88b43313adc19ec737a7542858560405161042693929190610a52565b60405180910390a3505050565b600080fd5b600080fd5b6000819050919050565b6104508161043d565b811461045b57600080fd5b50565b60008135905061046d81610447565b92915050565b60006020828403121561048957610488610433565b5b60006104978482850161045e565b91505092915050565b60008115159050919050565b6104b5816104a0565b82525050565b60006020820190506104d060008301846104ac565b92915050565b600073ffffffffffffffffffffffffffffffffffffffff82169050919050565b6000610501826104d6565b9050919050565b610511816104f6565b82525050565b6000819050919050565b61052a81610517565b82525050565b600081519050919050565b600082825260208201905092915050565b60005b8381101561056a57808201518184015260208101905061054f565b60008484015250505050565b6000601f19601f8301169050919050565b600061059282610530565b61059c818561053b565b93506105ac81856020860161054c565b6105b581610576565b840191505092915050565b60006080820190506105d56000830187610508565b6105e26020830186610521565b81810360408301526105f48185610587565b905061060360608301846104ac565b95945050505050565b600080fd5b600080fd5b600080fd5b60008083601f8401126106315761063061060c565b5b8235905067ffffffffffffffff81111561064e5761064d610611565b5b60208301915083600182028301111561066a57610669610616565b5b9250929050565b60008060006040848603121561068a57610689610433565b5b60006106988682870161045e565b935050602084013567ffffffffffffffff8111156106b9576106b8610438565b5b6106c58682870161061b565b92509250509250925092565b7f4e487b7100000000000000000000000000000000000000000000000000000000600052602260045260246000fd5b6000600282049050600182168061071857607f821691505b60208210810361072b5761072a6106d1565b5b50919050565b61073a8161043d565b82525050565b60006040820190506107556000830185610731565b6107626020830184610508565b9392505050565b7f4e487b7100000000000000000000000000000000000000000000000000000000600052604160045260246000fd5b60008190508160005260206000209050919050565b60006020601f8301049050919050565b600082821b905092915050565b6000600883026107fa7fffffffffffffffffffffffffffffffffffffffffffffffffffffffffffffffff826107bd565b61080486836107bd565b95508019841693508086168417925050509392505050565b6000819050919050565b600061084161083c61083784610517565b61081c565b610517565b9050919050565b6000819050919050565b61085b83610826565b61086f61086782610848565b8484546107ca565b825550505050565b600090565b610884610877565b61088f818484610852565b505050565b5b818110156108b3576108a860008261087c565b600181019050610895565b5050565b601f8211156108f8576108c981610798565b6108d2846107ad565b810160208510156108e1578190505b6108f56108ed856107ad565b830182610894565b50505b505050565b600082821c905092915050565b600061091b600019846008026108fd565b1980831691505092915050565b6000610934838361090a565b9150826002028217905092915050565b61094d82610530565b67ffffffffffffffff81111561096657610965610769565b5b6109708254610700565b61097b8282856108b7565b600060209050601f8311600181146109ae576000841561099c578287015190505b6109a68582610928565b865550610a0e565b601f1984166109bc86610798565b60005b828110156109e4578489015182556001820191506020850194506020810190506109bf565b86831015610a0157848901516109fd601f89168261090a565b8355505b6001600288020188555050505b505050505050565b82818337600083830152505050565b6000610a31838561053b565b9350610a3e838584610a16565b610a4783610576565b840190509392505050565b6000604082019050610a676000830186610521565b8181036020830152610a7a818486610a25565b905094935050505056fea264697066735822122040a997fd88737dd4831ed0d248805dcc77c277c9dff92257a5ecccfbb7c4636d64736f6c63430008140033",
  "linkReferences": {},
  "deployedLinkReferences": {}
}